:020000040800F2
:10000000A804002045010008A90F0008A50F00085A
:10001000A70F000853020008151200080000000096
:10002000000000000000000000000000AD0F00080C
:100030005502000800000000AB0F0008AF0F0008D9
:100040005F0100085F0100085F0100085F01000810
:100050005F0100085F0100085F0100085F01000800
:100060005F0100085F0100085F0100085F010008F0
:100070005F0100085F0100085F0100085F010008E0
:100080005F0100085F0100085F0100085F010008D0
:100090005F0100085F0100085F0100085F010008C0
:1000A0005F0100085F0100085F0100085F010008B0
:1000B0005F0100085F0100085F0100085F010008A0
:1000C0005F0100085F0100085F0100085F01000890
:1000D0005F010008E9110008F51100085F01000840
:1000E0005F0100085F0100085F0100085F01000870
:1000F0005F0100085F0100085F0100085F01000860
:100100005F0100085F0100085F0100085F0100084F
:100110005F0100085F0100085F0100085F0100083F
:100120005F0100085F0100085F0100085F0100082F
:10013000DFF80CD000F06CF800480047F516000816
:10014000A80400200648804706480047FEE7FEE76F
:10015000FEE7FEE7FEE7FEE7FEE7FEE7FEE7FEE777
:100160001110000831010008202A04DB203A21FA8E
:1001700002F00021704721FA02F3D040C2F12002C0
:100180009140084319467047D2B201E000F8012BB4
:10019000491EFBD270470022F6E710B513460A4607
:1001A00004461946FFF7F0FF204610BD2DE9F05F29
:1001B0000546002092469B468846064681464024D6
:1001C0001BE02846414647462246FFF7CDFF5346EF
:1001D0005A46C01A914110D311461846224600F0E3
:1001E00029F82D1A67EB01084F462246012000210D
:1001F00000F020F817EB00094E41201EA4F1010485
:10020000DFDC484631462A464346BDE8F09F000001
:10021000064C074D06E0E06840F0010394E8070053
:1002200098471034AC42F6D3FFF786FFF01700086A
:1002300010180008202A04DB203A00FA02F10020FE
:1002400070479140C2F1200320FA03F31943904014
:100250007047FEE7704700002DE9F05F90F821102D
:100260000024022903D004218163012485E0016870
:100270000A6822F00E020A6001680A6822F0010290
:100280000A603F4E3E4FB215DFF8F4C0DFF8F09041
:10029000DFF8ECA0DFF8E8B0DFF8E4E00168783FD1
:1002A00013011502ACF1640CA9F15009AAF13C0A42
:1002B000ABF1280BAEF1140E4FF48018B14227D9E0
:1002C000B9420ED0614512D049451DD0514518D0D4
:1002D000594518D0714501D1424615E0294EB14229
:1002E00001D1012210E0274E1436B14201D1102273
:1002F0000AE0244E2836B14206D0224A3C329142CE
:1003000001D11A4600E02A461E49091F0A602BE067
:10031000B94213D0614517D0494522D051451DD06F
:1003200059451DD0714501D142461AE0B14202D172
:100330004FF0807215E0134EB14201D1012210E05E
:10034000104E1436B14201D110220AE00D4E28366B
:10035000B14206D00B4A3C32914201D11A4600E02C
:100360002A46074980394A60012180F8211000217E
:1003700080F82010416B01B188472046BDE8F09F0E
:10038000800002400804024070B5044600F00AF9FB
:100390000546601C02D004480078044400F002F9CD
:1003A000401BA042FAD370BD100000202DE9F84F89
:1003B000DFF8C891002409F1040A0AF1040B23466E
:1003C0000F270BF1040ED1E00125A54006EA050236
:1003D000AA4276D1DFF8A8C14E68A6EB0C086645A4
:1003E0002BD00DDC032E34D005DC36B3012E19D012
:1003F000022E2FD11BE0112E16D0122E2AD119E079
:10040000B8F5881F19D006DCB8F5803F15D0B8F5CF
:10041000801F1FD111E0B8F5001F0ED0B8F5041FE2
:1004200018D10AE0CB6815E0CB681B1D12E0CB6841
:1004300008330FE0CB680C330CE08B682BB1012B39
:100440004FF0080303D0456104E0042302E0056196
:1004500000E00023FF2A01D8064601E000F104066F
:100460004FEA840501D9A5F12005D6F8008007FAE6
:1004700005FC28EA0C0803FA05F548EA0508C6F861
:1004800000804D68ED0070D53E4DAE6946F0010626
:10049000AE61AD6924F0030605F0010500953A4D03
:1004A00006EB050CDCF80850A607360F07FA06F82D
:1004B00025EA0805DFF8D480404503D14FF0000855
:1004C00025E052E0DFF8C880404502D14FF0010836
:1004D0001DE0DFF8C080404502D14FF0020816E071
:1004E000DFF8B480404502D14FF003080FE0DFF899
:1004F000AC80404502D14FF0040808E0DFF8A0804E
:10050000404502D14FF0050801E04FF0060808FA17
:1005100006F848EA0508CCF808804D68D9F800606C
:10052000ED034D4601D5164300E096432E604D681D
:10053000DAF80060AD03554601D5164300E0964356
:100540002E604D68DBF80060ED025D4601D5164374
:1005500000E096432E604D68DEF80060AD027546FF
:1005600001D5164300E096432E60641C0A681646C7
:10057000E2407FF429AFBDE8F88F0000000401409D
:10058000000011100010024000000140000801406E
:10059000000C01400010014000140140001801400F
:1005A000001C0140014880687047000010000020D6
:1005B0000248816802781144816070471000002071
:1005C000074810B5016841F010010160032000F0F8
:1005D00075F8002000F006F800F024F8002010BDA7
:1005E0000020024070B50D4D04464FF47A71287812
:1005F000B1FBF0F00A490968B1FBF0F000F0ECFA49
:1006000048B9102C07D200222146501E00F036F8BF
:1006100000206C6070BD012070BD00001000002043
:100620001C0000200C4808B5816941F0010181617E
:10063000816901F001010091C16941F08051C161FE
:10064000C06900F0805000900448416821F0E061EA
:1006500041F00071416008BD0010024000000140FF
:10066000002809DB00F01F020121914040098000B1
:1006700000F1E020C0F8001170470000F0B40E4B0C
:100680001B680C46C3F30223C3F10705042D00D9F0
:100690000425191D072901D2002300E0DB1E0126D5
:1006A00006FA05F1491E214099409E40761E1640EB
:1006B0003143F0BC00F0C0BD0CED00E0064900F095
:1006C000070208684FF6FF03184040EA0220034A79
:1006D00010430860704700000CED00E00000FA05D0
:1006E0002DE9F0470F46050061D0434E306800F019
:1006F0000700B84209D2306820F007003843306064
:10070000306800F00700B84251D128683B4C81079F
:1007100012D5400703D5606840F4E0606060287837
:10072000000703D5606840F4605060606068A968A5
:1007300020F0F000084360602878C00728D068687F
:10074000012810D02168022810D0890700292EDA4C
:10075000616821F0030101436160FFF723FF8046D8
:1007600041F288390DE021688903EFE78901EDE75F
:10077000FFF718FFA0EB0801494502D90320BDE8A7
:10078000F0876068696800F00C00B0EB810FEFD172
:10079000306800F00700B8420BD9306820F007003D
:1007A00038433060306800F00700B84201D00120C3
:1007B000E5E72878400705D56068E96820F4E0603F
:1007C000084360602878000706D56068296920F42E
:1007D000605040EAC100606000F038F86168084A83
:1007E000C1F30311515CC84006490860064800681F
:1007F000FFF7F8FE0020C2E7002002400010024090
:10080000D81700081C0000201400002004480549E7
:1008100000684968044AC1F30221515CC84070472E
:100820001C00002000100240E81700080448054999
:1008300000684968044AC1F3C221515CC84070474E
:100840001C00002000100240E817000812A185B02B
:100850000FC98DE80F0014A0144A00680490516875
:10086000134801F00C03042B10D0082B0ED1C1F358
:100870008343C9031DF803000AD5516804AAC1F3D4
:100880004041515C0A4A5043B0FBF1F005B070475B
:1008900008494843FAE7000002030405060708096F
:1008A0000A0B0C0D0E0F1010010200000010024088
:1008B00000127A0000093D002DE9F84F040070D0C5
:1008C0002078C04DC00749D06868C0F38100012876
:1008D00007D06868C0F38100022809D16868C003A6
:1008E00006D52868800339D560680028E7D035E050
:1008F0006068B0F5803F0BD010B1B0F5A02F11D0DB
:10090000286820F480302860286820F4802002E0E5
:10091000286840F480302860606890B1FFF742FE9C
:1009200006460AE0286840F480202860F0E700BF0F
:10093000FFF738FE801B642873D828688003F7D53A
:100940000CE0FFF72FFE064605E000BFFFF72AFE8A
:10095000801B6428F0D828688003F7D420789A4E4A
:1009600080074FF001094FF0000839D5686810F092
:100970000C0F07D06868C0F38100022809D16868AD
:10098000C00306D42868800714D52069012808D13F
:1009900010E02069B0B1C6F80090FFF703FE0746EB
:1009A00005E00AE1FFF7FEFDC01B0228C4D8286855
:1009B0008007F7D52868616920F0F80040EAC10097
:1009C00028600DE0C6F80080FFF7ECFD074604E064
:1009D000FFF7E8FDC01B022823D828688007F7D45A
:1009E000207800072CD57948A169D9B1C0F80090CA
:1009F000FFF7D8FD074604E0FFF7D4FDC01B02282F
:100A00000FD8686A8007F7D571484FF4FA5100682B
:100A1000B0FBF1F0009000BF0098411E0091FAD2A7
:100A20000EE080E0C0F80080FFF7BCFD074604E060
:100A3000FFF7B8FDC01B022875D8686A8007F7D495
:100A40002078400760D5E8690027C00008D4E8692D
:100A500040F08050E861E869012700F08050009084
:100A60005C480168C90513D40168834641F480716C
:100A70000160FFF797FD824606E000BFFFF792FD99
:100A8000A0EB0A0064284ED8DBF80000C005F5D5BD
:100A9000E06801280AD008B1052813D0286A20F0A0
:100AA00001002862286A20F0040002E0286A40F071
:100AB00001002862E06841F2883B98B1FFF772FDBF
:100AC00082460BE0286A40F004002862EEE700BF8F
:100AD000FFF768FDA0EB0A0159455AD8286A80073C
:100AE000F6D50CE0FFF75EFD824605E0FFF75AFD04
:100AF000A0EB0A0159454CD8286A8007F6D41FB1EB
:100B0000E86920F08050E861E06988B36968C1F362
:100B10008101022944D00228C6F8608004D0FFF782
:100B200041FD044638E034E0FFF73CFD074604E0B1
:100B3000FFF738FDC01B02282BD828688001F7D4A6
:100B4000206AB0F5803F05D16868A16820F40030C4
:100B500008436860D4E908010843696821F4741106
:100B600008436860C6F86090FFF71CFD044606E085
:100B700025E000BFFFF716FD001B022809D82868F2
:100B80008001F7D51BE000BFFFF70CFD001B02281A
:100B900002D90320BDE8F88F28688001F4D40EE064
:100BA0000128F7D06868226A00F48031914204D1AC
:100BB000616A00F47010884201D00120EAE7002049
:100BC000E8E7000000100240000042428004424278
:100BD0001C0000200070004010B5401EB0F1807F66
:100BE00001D3012010BD4FF0E02460610F21601798
:100BF00000F022FB0020A06107202061002010BD32
:100C00007047000070B5026804461068D1685369E7
:100C100010F00F0F53D003F0010501F490762E432E
:100C20005FD0C20705D0CA0503D5E26B42F00102CE
:100C3000E263420705D5DA0703D0E26B42F0020215
:100C4000E263820705D5DA0703D0E26B42F00402C3
:100C5000E263020707D501F020022A4303D0E26BCA
:100C600042F00802E263E26B002A34D0800604D529
:100C7000880602D5204600F0E2F920684069E16B61
:100C8000C0F3801001F008010143204624D000F099
:100C9000C8F92068416949061AD5416921F0400127
:100CA0004161606BA0B12D494163606BFFF7D4FADD
:100CB000002810D0606B416BBDE870400847830688
:100CC0000FD58B060DD52046BDE8704000F0B7B9B2
:100CD0002046FFF795FF70BDFFF792FF0020E0630D
:100CE00070BD03062BD50B0629D594F839002128B1
:100CF000F6D1A068B0F5805F01D12069B0B1206A5B
:100D0000411C2162216800784860E08C401E00048C
:100D1000000CE084E4D12068C16821F08001C1604A
:100D20002068C16841F04001C16070BD206A008840
:100D3000C0F308005060206A801C2062E5E740068E
:100D4000F3D54806F1D5D168204621F04001D160A5
:100D5000202184F8391000F024F970BD1310000828
:100D600070B5040004D094F83900002510B106E0F5
:100D7000012070BD84F83850204600F023F824206C
:100D800084F839002068C16821F40051C160204610
:100D900000F09CF92068016921F49041016120680C
:100DA000416921F02A0141612068C16841F4005184
:100DB000C160E563202084F8390084F83A000020FF
:100DC00070BD000070B586B00024009401940294B8
:100DD00003942E4E03682E49022003222D4DB34268
:100DE00026D18B6943F480438B618B6903F4804384
:100DF00004938B6943F004038B618969039201F0CA
:100E0000040104910102CDE9001069462846FFF76C
:100E1000CDFA2815CDE90004694628460294FFF76B
:100E2000C5FA002211462520FFF728FC252028E0DE
:100E3000194EB34227D1CB6943F40033CB61CB6960
:100E400003F4003304938B6943F004038B618969D5
:100E5000039201F0040104910621CDE900106946D6
:100E60002846FFF7A3FA0820CDE900046946284682
:100E70000294FFF79BFA002211462620FFF7FEFBA3
:100E80002620FFF7EDFB06B070BD000000380140E2
:100E900000100240000801400044004090F83A3041
:100EA000202B22D1F9B1F2B190F83830012B1CD0AF
:100EB00081628285C2850021C163222280F83A20A6
:100EC00080F838100168CA6842F48072CA6001680C
:100ED0004A6942F001024A610068C16841F020019C
:100EE000C1600020704701207047022070477047A2
:100EF0002DE9F843044690F839001F4616460D4682
:100F000020284CD1C5B1BEB194F83800012846D094
:100F1000012084F838004FF00008C4F83C802120FC
:100F200084F83900FFF73EFBA6848146E684A0687A
:100F3000B0F5805F03D004E00120BDE8F8832069AC
:100F400028B12E465FF0000584F838800EE00026B8
:100F5000FAE78021204600F015F9A0B9AEB116F8E5
:100F6000010B21684860E08C401EE084E08C4B4619
:100F70004FF0000200970028EBD14FF040012046CF
:100F800000F000F930B10320D7E735F8020BC0F3C9
:100F90000800E6E7202084F839000020CDE7022091
:100FA000CBE77047FEE7FEE7FEE770477047FFF7C5
:100FB000FFBA30B58FB028216846FFF7ECF814214E
:100FC0000AA8FFF7E8F801210804CDE90010002481
:100FD000029402250491CDE907504FF4E0100990E6
:100FE0006846FFF769FC08B172B6FEE70F20CDE94D
:100FF0000A054FF48060CDE90C4002210AA80E9446
:10100000FFF76EFB002801D072B6FEE70FB030BDCF
:10101000704710B5406A0021C185C184FFF7F0FD1B
:1010200010BD0168CA6822F49072CA6001684A69FA
:1010300022F001024A61202180F83A10704710B571
:1010400090F83A10222901D0022010BD82684FF496
:1010500080539A4201D1016921B1816A9A421BD021
:101060004AB10AE00268816A5268C2F308020A8043
:10107000816A891C08E0026972B10268526802F054
:101080007F020A70816A491C8162C18D491E090470
:10109000090CC18503D016E002685268F1E70168C7
:1010A000CA6822F02002CA600168CA6822F480720D
:1010B000CA6001684A6922F001024A61202180F871
:1010C0003A10FFF714FF002010BD000070B5044671
:1010D00000680169E26821F440511143016121690E
:1010E000A0680843616908432168CA6841F20C633B
:1010F0009A430243CA6020684169A26921F44071A1
:10110000114341611E492068884202D1FFF78EFBDE
:1011100001E0FFF77BFB00EBC00101EB0012606810
:1011200064218000B2FBF0F3B3FBF1F36FF018061B
:101130007343B2FBF0F5B2FBF0F605EB8305322307
:1011400003EB0515B5FBF1F5B6FBF1F605F0F0057F
:1011500005EB0615B2FBF0F6B2FBF0F0B0FBF1F0D8
:101160006FF01802504306EB800003EB0010B0FB59
:10117000F1F0216800F00F002844886070BD000085
:10118000003801402DE9F041984617460E460446C6
:10119000069D1DE0681C1BD02DB1FFF703FAA0EBE4
:1011A0000800A84214D92068C16821F4D071C16038
:1011B0002068416921F001014161202084F8390053
:1011C00084F83A00002084F838000320BDE8F0815C
:1011D0002068006836EA000004D00020B842D9D068
:1011E0000020F3E70120F9E70148FFF70BBD0000FD
:1011F0002400002010B50548FFF704FDBDE81040AD
:10120000072203490148FFF749BE0000640000209F
:1012100000000020FEE700000FB4054B10B503A945
:10122000044A029800F028F810BC5DF814FB000096
:10123000DD160008200000200907090E002804DB45
:1012400000F1E02080F80014704700F00F0000F17A
:10125000E02080F8141D704702E008C8121F08C182
:10126000002AFAD170477047002001E001C1121F27
:10127000002AFBD1704700002DE9FF4F8DB00F46CB
:101280000546002606E025280BD0DDE90F12904721
:101290006D1C761C28780028F5D111B03046BDE8C9
:1012A000F08F0024A246A1460122EC4900E004434D
:1012B00015F8013F203B02FA03F00842F7D12878E5
:1012C0002A2810D06FF02F022878A0F130010929C8
:1012D00014D80AEB8A0102EB410144F0020400EB4E
:1012E000010A6D1CF0E701CF5FEA000A03D544F460
:1012F0000054CAF1000A44F002046D1C28782E281C
:1013000017D115F8010F44F004042A280ED06FF00D
:101310002F022878A0F1300109290AD809EB8901A8
:1013200002EB410100EB01096D1CF2E757F8049B49
:101330006D1C28786C280FD006DC4C2817D0682844
:101340000DD06A2814D104E0742810D07A280FD167
:101350000DE044F400140AE044F4801401E044F485
:1013600040146978814202D104F580146D1C6D1C13
:101370002A786E2A1FD00CDC632A31D004DC002AC4
:101380008BD0582A11D1A3E0642A68D0692A0CD1E5
:1013900065E0732A2ED004DC6F2A73D0702A04D142
:1013A0009BE0752A6FD0782A6ED01046DDE90F12C7
:1013B0009047761C50E1C4F30250022806D003285F
:1013C00009D0042801CF09D0066045E101CFF1170B
:1013D000C0E9006140E101CF06803DE106703BE1DC
:1013E00017F8040B8DF8000000208DF80100EB4683
:1013F000012003E057F804BB4FF0FF3061074FF0C6
:10140000000102D40DE008F10101884649450FDAD8
:101410008045F8DB1BF808100029F4D108E008F13A
:10142000010188468142FADB1BF808100029F6D139
:10143000DDE90F23AAEB08008146214600F036F9CA
:10144000304400EB080604E0DDE90F121BF8010B45
:101450009047B8F10108F7D221464846F7E00A2143
:10146000C4F302534FF0000B0891022B04D001CFBC
:10147000C117032B09D00AE0FF1D27F00707F7E883
:10148000020108E032E01FE020E000B2C117042BA7
:1014900001D140B2C117031E71F1000307DA4FF00A
:1014A000000CD0EB0C006CEB01012D2302E02305B6
:1014B00004D52B238DF82430012303E0E30701D06A
:1014C0002023F7E7984658E00A2110E010210EE0AB
:1014D00010204FF0000B08900CE010214FF0000B93
:1014E00044F004044FF00809089103E008214FF08C
:1014F000000B0891C4F30253022B04D001CF00214A
:10150000032B06D006E0FF1D27F00707F7E80201CE
:1015100003E080B2042B00D1C0B24FF000082307D3
:101520002BD5702A07D0DDF820C08CF0100C5CEAB7
:101530000B0C05D00EE040238DF82430012308E089
:1015400050EA010306D030238DF824308DF8252091
:1015500002239846DDF820C08CF0080C5CEA0B0CE6
:101560000BD150EA010301D1630706D530238DF872
:1015700024304FF00108A9F10109582A04D038A2FB
:101580000B9208AA0A920BE03AA2F9E75B46089A86
:10159000FEF70CFE0B9B9B5C0A9A521E0A9213707C
:1015A00050EA0102F2D10A98ADEB000000F1200BE5
:1015B000600702D524F4803401E04FF00109D945D9
:1015C00002DDA9EB0B0000E0002000EB0B01414421
:1015D0000890AAEB010AE00306D4DDE90F232146B7
:1015E000504600F063F806444FF0000908E009A9EE
:1015F00011F80900DDE90F12904709F10109761C85
:10160000C145F4DBE0030CD5DDE90F23214650464C
:1016100000F04CF8064404E0DDE90F12302090475A
:10162000761C0899481E08900029F5DC08E00A9805
:101630000A990078491C0A91DDE90F129047761C3F
:10164000BBF10001ABF1010BF1DC21465046DDE9B5
:101650000F2300F019F806446D1C1BE60928010051
:101660003031323334353637383961626364656618
:1016700000000000303132333435363738394142DA
:1016800043444546000000002DE9F0410446002592
:101690001E461746880404D405E039462020B0478A
:1016A0006D1C641EF9D52846BDE8F0812DE9F04196
:1016B000044600251E469046C80301D5302700E0A9
:1016C0002027880404D505E041463846B0476D1C04
:1016D000641EF9D52846BDE8F081000013B54FF629
:1016E000FF73012269460248FFF702FC00981CBD07
:1016F0002400002008B5FEF763FFFFF75AFC2F48CF
:10170000816941F00401816180692D4900F0040084
:1017100000902C4800240C2501604FF4E131C0E911
:101720000114C460C0E904458461C461FFF718FB7B
:1017300008B172B6FEE723482349403001604FF4F8
:101740009651C0E90114C4604FF48071C0E90445AA
:10175000C0E90614FFF704FB08B172B6FEE71B4CA4
:1017600041F288350A20FEF70FFE184915482B462E
:101770000822C91D4030FFF7BBFB6420FEF704FEC2
:10178000217813A0FFF748FD617811A0FFF744FD11
:10179000A1780FA0FFF740FDE1780DA0FFF73CFD19
:1017A00021790BA0FFF738FD617909A0FFF734FD1F
:1017B000A17907A0FFF730FDD4E700000010024038
:1017C00000380140240000200044004000000020B8
:1017D00025303278090A00000000000000000000F7
:1017E00001020304060708090000000001020304C7
:1017F0001018000800000020240000005812000803
:101800003418000824000020840400006812000836
:1018100000000000000000010300030001740A0042
:101820000100000010000000000000000024F4008F
:0418300000000000B4
:0400000508000131BD
:00000001FF
